{
  "contractName": "ConferenceEnroll",
  "abi": [
    {
      "inputs": [],
      "stateMutability": "nonpayable",
      "type": "constructor"
    },
    {
      "anonymous": false,
      "inputs": [
        {
          "indexed": false,
          "internalType": "string",
          "name": "_name",
          "type": "string"
        }
      ],
      "name": "ConferenceExpire",
      "type": "event"
    },
    {
      "anonymous": false,
      "inputs": [
        {
          "indexed": false,
          "internalType": "address",
          "name": "participant",
          "type": "address"
        },
        {
          "indexed": false,
          "internalType": "string",
          "name": "confName",
          "type": "string"
        }
      ],
      "name": "MyNewConference",
      "type": "event"
    },
    {
      "anonymous": false,
      "inputs": [
        {
          "indexed": false,
          "internalType": "string",
          "name": "_name",
          "type": "string"
        }
      ],
      "name": "NewConference",
      "type": "event"
    },
    {
      "inputs": [],
      "name": "administrator",
      "outputs": [
        {
          "internalType": "address",
          "name": "",
          "type": "address"
        }
      ],
      "stateMutability": "view",
      "type": "function"
    },
    {
      "inputs": [
        {
          "internalType": "uint256",
          "name": "",
          "type": "uint256"
        }
      ],
      "name": "conferences",
      "outputs": [
        {
          "internalType": "string",
          "name": "name",
          "type": "string"
        },
        {
          "internalType": "uint256",
          "name": "maxPerson",
          "type": "uint256"
        },
        {
          "internalType": "uint256",
          "name": "curPerson",
          "type": "uint256"
        },
        {
          "internalType": "bool",
          "name": "canRegister",
          "type": "bool"
        }
      ],
      "stateMutability": "view",
      "type": "function"
    },
    {
      "inputs": [
        {
          "internalType": "string",
          "name": "_name",
          "type": "string"
        }
      ],
      "name": "signUp",
      "outputs": [],
      "stateMutability": "nonpayable",
      "type": "function"
    },
    {
      "inputs": [
        {
          "internalType": "address",
          "name": "_to",
          "type": "address"
        }
      ],
      "name": "delegate",
      "outputs": [],
      "stateMutability": "nonpayable",
      "type": "function"
    },
    {
      "inputs": [
        {
          "internalType": "uint256",
          "name": "_conferenceId",
          "type": "uint256"
        }
      ],
      "name": "enroll",
      "outputs": [],
      "stateMutability": "nonpayable",
      "type": "function"
    },
    {
      "inputs": [
        {
          "internalType": "address",
          "name": "_trustee",
          "type": "address"
        },
        {
          "internalType": "address",
          "name": "_delegator",
          "type": "address"
        }
      ],
      "name": "isTrustee",
      "outputs": [
        {
          "internalType": "bool",
          "name": "",
          "type": "bool"
        }
      ],
      "stateMutability": "view",
      "type": "function"
    },
    {
      "inputs": [
        {
          "internalType": "address",
          "name": "_delegator",
          "type": "address"
        },
        {
          "internalType": "uint256",
          "name": "_conferenceId",
          "type": "uint256"
        }
      ],
      "name": "enrollFor",
      "outputs": [],
      "stateMutability": "nonpayable",
      "type": "function"
    },
    {
      "inputs": [
        {
          "internalType": "string",
          "name": "_name",
          "type": "string"
        },
        {
          "internalType": "uint256",
          "name": "_maxPerson",
          "type": "uint256"
        }
      ],
      "name": "newConference",
      "outputs": [],
      "stateMutability": "nonpayable",
      "type": "function"
    },
    {
      "inputs": [],
      "name": "destruct",
      "outputs": [],
      "stateMutability": "payable",
      "type": "function"
    },
    {
      "inputs": [],
      "name": "queryConfList",
      "outputs": [
        {
          "components": [
            {
              "internalType": "string",
              "name": "name",
              "type": "string"
            },
            {
              "internalType": "uint256",
              "name": "maxPerson",
              "type": "uint256"
            },
            {
              "internalType": "uint256",
              "name": "curPerson",
              "type": "uint256"
            },
            {
              "internalType": "bool",
              "name": "canRegister",
              "type": "bool"
            }
          ],
          "internalType": "struct ConferenceEnroll.Conference[]",
          "name": "",
          "type": "tuple[]"
        }
      ],
      "stateMutability": "view",
      "type": "function"
    },
    {
      "inputs": [],
      "name": "queryMyConf",
      "outputs": [
        {
          "internalType": "string[]",
          "name": "",
          "type": "string[]"
        }
      ],
      "stateMutability": "view",
      "type": "function"
    }
  ],
  "bytecode": "0x608060405234801561000f575f80fd5b50335f806101000a81548173ffffffffffffffffffffffffffffffffffffffff021916908373ffffffffffffffffffffffffffffffffffffffff160217905550612a458061005c5f395ff3fe60806040526004361061009b575f3560e01c8063adcfb4fc11610063578063adcfb4fc14610176578063bf3d6af81461019e578063e4512d2e146101c8578063f53d0a8e146101f0578063f57d585b1461021a578063fd4b8b78146102425761009b565b80632b68b9c61461009f5780632ed1dc61146100a9578063312e1d29146100e55780635c19a95c1461010f57806379fe9a9a14610137575b5f80fd5b6100a761026a565b005b3480156100b4575f80fd5b506100cf60048036038101906100ca9190611705565b610418565b6040516100dc919061175d565b60405180910390f35b3480156100f0575f80fd5b506100f96106c2565b6040516101069190611942565b60405180910390f35b34801561011a575f80fd5b5061013560048036038101906101309190611962565b6108f9565b005b348015610142575f80fd5b5061015d600480360381019061015891906119b7565b610ac3565b60405161016d9493929190611a39565b60405180910390f35b348015610181575f80fd5b5061019c60048036038101906101979190611baf565b610b90565b005b3480156101a9575f80fd5b506101b2610cf3565b6040516101bf9190611cb1565b60405180910390f35b3480156101d3575f80fd5b506101ee60048036038101906101e99190611cd1565b610e05565b005b3480156101fb575f80fd5b506102046110c7565b6040516102119190611d1e565b60405180910390f35b348015610225575f80fd5b50610240600480360381019061023b91906119b7565b6110ea565b005b34801561024d575f80fd5b5061026860048036038101906102639190611d37565b6113a9565b005b5f8054906101000a900473ffffffffffffffffffffffffffffffffffffffff1673ffffffffffffffffffffffffffffffffffffffff163373ffffffffffffffffffffffffffffffffffffffff16146102f7576040517f08c379a00000000000000000000000000000000000000000000000000000000081526004016102ee90611e01565b60405180910390fd5b5f8054906101000a900473ffffffffffffffffffffffffffffffffffffffff1673ffffffffffffffffffffffffffffffffffffffff163373ffffffffffffffffffffffffffffffffffffffff161461034d575f80fd5b5f805f9054906101000a900473ffffffffffffffffffffffffffffffffffffffff1673ffffffffffffffffffffffffffffffffffffffff164760405161039290611e4c565b5f6040518083038185875af1925050503d805f81146103cc576040519150601f19603f3d011682016040523d82523d5f602084013e6103d1565b606091505b5050905080610415576040517f08c379a000000000000000000000000000000000000000000000000000000000815260040161040c90611eaa565b60405180910390fd5b50565b5f8060035f8573ffffffffffffffffffffffffffffffffffffffff1673ffffffffffffffffffffffffffffffffffffffff1681526020019081526020015f20805480602002602001604051908101604052809291908181526020015f905b82821015610609578382905f5260205f2090600202016040518060400160405290815f820180546104a690611ef5565b80601f01602080910402602001604051908101604052809291908181526020018280546104d290611ef5565b801561051d5780601f106104f45761010080835404028352916020019161051d565b820191905f5260205f20905b81548152906001019060200180831161050057829003601f168201915b5050505050815260200160018201805480602002602001604051908101604052809291908181526020015f905b828210156105f2578382905f5260205f2001805461056790611ef5565b80601f016020809104026020016040519081016040528092919081815260200182805461059390611ef5565b80156105de5780601f106105b5576101008083540402835291602001916105de565b820191905f5260205f20905b8154815290600101906020018083116105c157829003601f168201915b50505050508152602001906001019061054a565b505050508152505081526020019060010190610476565b5050505090505f5b81518110156106b65760015f8573ffffffffffffffffffffffffffffffffffffffff1673ffffffffffffffffffffffffffffffffffffffff1681526020019081526020015f205f016040516106669190611fb7565b604051809103902082828151811061068157610680611fcd565b5b60200260200101515f015180519060200120036106a3576001925050506106bc565b80806106ae90612027565b915050610611565b505f9150505b92915050565b60605f805b60028054905081101561072b57600281815481106106e8576106e7611fcd565b5b905f5260205f2090600402016003015f9054906101000a900460ff161561071857818061071490612027565b9250505b808061072390612027565b9150506106c7565b505f8167ffffffffffffffff81111561074757610746611a8b565b5b60405190808252806020026020018201604052801561078057816020015b61076d611548565b8152602001906001900390816107655790505b5090505f805b6002805490508110156108ef57600281815481106107a7576107a6611fcd565b5b905f5260205f2090600402016003015f9054906101000a900460ff166108dc57600281815481106107db576107da611fcd565b5b905f5260205f2090600402016040518060800160405290815f8201805461080190611ef5565b80601f016020809104026020016040519081016040528092919081815260200182805461082d90611ef5565b80156108785780601f1061084f57610100808354040283529160200191610878565b820191905f5260205f20905b81548152906001019060200180831161085b57829003601f168201915b505050505081526020016001820154815260200160028201548152602001600382015f9054906101000a900460ff1615151515815250508383815181106108c2576108c1611fcd565b5b602002602001018190525081806108d890612027565b9250505b80806108e790612027565b915050610786565b5081935050505090565b5f60015f3373ffffffffffffffffffffffffffffffffffffffff1673ffffffffffffffffffffffffffffffffffffffff1681526020019081526020015f205f01805461094490611ef5565b905011610986576040517f08c379a000000000000000000000000000000000000000000000000000000000815260040161097d906120b8565b60405180910390fd5b5f73ffffffffffffffffffffffffffffffffffffffff168173ffffffffffffffffffffffffffffffffffffffff16036109f4576040517f08c379a00000000000000000000000000000000000000000000000000000000081526004016109eb90612120565b60405180910390fd5b60035f8273ffffffffffffffffffffffffffffffffffffffff1673ffffffffffffffffffffffffffffffffffffffff1681526020019081526020015f2060015f3373ffffffffffffffffffffffffffffffffffffffff1673ffffffffffffffffffffffffffffffffffffffff1681526020019081526020015f20908060018154018082558091505060019003905f5260205f2090600202015f909190919091505f8201815f019081610aa691906122f0565b506001820181600101908054610abd92919061156f565b50505050565b60028181548110610ad2575f80fd5b905f5260205f2090600402015f91509050805f018054610af190611ef5565b80601f0160208091040260200160405190810160405280929190818152602001828054610b1d90611ef5565b8015610b685780601f10610b3f57610100808354040283529160200191610b68565b820191905f5260205f20905b815481529060010190602001808311610b4b57829003601f168201915b505050505090806001015490806002015490806003015f9054906101000a900460ff16905084565b5f60015f3373ffffffffffffffffffffffffffffffffffffffff1673ffffffffffffffffffffffffffffffffffffffff1681526020019081526020015f205f018054610bdb90611ef5565b905014610c1d576040517f08c379a0000000000000000000000000000000000000000000000000000000008152600401610c149061241f565b60405180910390fd5b60405180604001604052808281526020015f67ffffffffffffffff811115610c4857610c47611a8b565b5b604051908082528060200260200182016040528015610c7b57816020015b6060815260200190600190039081610c665790505b5081525060015f3373ffffffffffffffffffffffffffffffffffffffff1673ffffffffffffffffffffffffffffffffffffffff1681526020019081526020015f205f820151815f019081610ccf919061243d565b506020820151816001019080519060200190610cec9291906115c8565b5090505050565b606060015f3373ffffffffffffffffffffffffffffffffffffffff1673ffffffffffffffffffffffffffffffffffffffff1681526020019081526020015f20600101805480602002602001604051908101604052809291908181526020015f905b82821015610dfc578382905f5260205f20018054610d7190611ef5565b80601f0160208091040260200160405190810160405280929190818152602001828054610d9d90611ef5565b8015610de85780601f10610dbf57610100808354040283529160200191610de8565b820191905f5260205f20905b815481529060010190602001808311610dcb57829003601f168201915b505050505081526020019060010190610d54565b50505050905090565b5f60015f8473ffffffffffffffffffffffffffffffffffffffff1673ffffffffffffffffffffffffffffffffffffffff1681526020019081526020015f205f018054610e5090611ef5565b905011610e92576040517f08c379a0000000000000000000000000000000000000000000000000000000008152600401610e899061257c565b60405180910390fd5b610e9c3383610418565b610edb576040517f08c379a0000000000000000000000000000000000000000000000000000000008152600401610ed29061260a565b60405180910390fd5b5f60028281548110610ef057610eef611fcd565b5b905f5260205f2090600402019050806003015f9054906101000a900460ff16610f4e576040517f08c379a0000000000000000000000000000000000000000000000000000000008152600401610f4590612698565b60405180910390fd5b8060010154816002015410610f98576040517f08c379a0000000000000000000000000000000000000000000000000000000008152600401610f8f90612700565b60405180910390fd5b806002015f815480929190610fac90612027565b919050555060015f8473ffffffffffffffffffffffffffffffffffffffff1673ffffffffffffffffffffffffffffffffffffffff1681526020019081526020015f20600101815f01908060018154018082558091505060019003905f5260205f20015f9091909190915090816110229190612745565b507f9799d9c50381c70b2e1942d0f4db9a83f6bf127844bda25f47d5a85e2182f89083825f016040516110569291906128ab565b60405180910390a180600101548160020154106110c2575f816003015f6101000a81548160ff0219169083151502179055507f4116eed53c5dbdbaa5ceb05d02a470f96b83428606acdc17b43009818c246f5f815f016040516110b991906128d9565b60405180910390a15b505050565b5f8054906101000a900473ffffffffffffffffffffffffffffffffffffffff1681565b6002805490508110611131576040517f08c379a000000000000000000000000000000000000000000000000000000000815260040161112890612943565b60405180910390fd5b5f60015f3373ffffffffffffffffffffffffffffffffffffffff1673ffffffffffffffffffffffffffffffffffffffff1681526020019081526020015f205f01805461117c90611ef5565b9050116111be576040517f08c379a00000000000000000000000000000000000000000000000000000000081526004016111b5906120b8565b60405180910390fd5b5f600282815481106111d3576111d2611fcd565b5b905f5260205f2090600402019050806003015f9054906101000a900460ff16611231576040517f08c379a000000000000000000000000000000000000000000000000000000000815260040161122890612698565b60405180910390fd5b806001015481600201541061127b576040517f08c379a000000000000000000000000000000000000000000000000000000000815260040161127290612700565b60405180910390fd5b806002015f81548092919061128f90612027565b919050555060015f3373ffffffffffffffffffffffffffffffffffffffff1673ffffffffffffffffffffffffffffffffffffffff1681526020019081526020015f20600101815f01908060018154018082558091505060019003905f5260205f20015f9091909190915090816113059190612745565b507f9799d9c50381c70b2e1942d0f4db9a83f6bf127844bda25f47d5a85e2182f89033825f016040516113399291906128ab565b60405180910390a180600101548160020154106113a5575f816003015f6101000a81548160ff0219169083151502179055507f4116eed53c5dbdbaa5ceb05d02a470f96b83428606acdc17b43009818c246f5f815f0160405161139c91906128d9565b60405180910390a15b5050565b5f8054906101000a900473ffffffffffffffffffffffffffffffffffffffff1673ffffffffffffffffffffffffffffffffffffffff163373ffffffffffffffffffffffffffffffffffffffff1614611436576040517f08c379a000000000000000000000000000000000000000000000000000000000815260040161142d90611e01565b60405180910390fd5b5f8111611478576040517f08c379a000000000000000000000000000000000000000000000000000000000815260040161146f906129d1565b60405180910390fd5b600260405180608001604052808481526020018381526020015f815260200160011515815250908060018154018082558091505060019003905f5260205f2090600402015f909190919091505f820151815f0190816114d7919061243d565b5060208201518160010155604082015181600201556060820151816003015f6101000a81548160ff02191690831515021790555050507f66cbba04da927bffa6177e9ae7e4a4cc81001fb5cb41a15098569f2e11dba1c08260405161153c91906129ef565b60405180910390a15050565b6040518060800160405280606081526020015f81526020015f81526020015f151581525090565b828054828255905f5260205f209081019282156115b7575f5260205f209182015b828111156115b657828290816115a691906122f0565b5091600101919060010190611590565b5b5090506115c4919061161f565b5090565b828054828255905f5260205f2090810192821561160e579160200282015b8281111561160d5782518290816115fd919061243d565b50916020019190600101906115e6565b5b50905061161b919061161f565b5090565b5b8082111561163e575f81816116359190611642565b50600101611620565b5090565b50805461164e90611ef5565b5f825580601f1061165f575061167c565b601f0160209004905f5260205f209081019061167b919061167f565b5b50565b5b80821115611696575f815f905550600101611680565b5090565b5f604051905090565b5f80fd5b5f80fd5b5f73ffffffffffffffffffffffffffffffffffffffff82169050919050565b5f6116d4826116ab565b9050919050565b6116e4816116ca565b81146116ee575f80fd5b50565b5f813590506116ff816116db565b92915050565b5f806040838503121561171b5761171a6116a3565b5b5f611728858286016116f1565b9250506020611739858286016116f1565b9150509250929050565b5f8115159050919050565b61175781611743565b82525050565b5f6020820190506117705f83018461174e565b92915050565b5f81519050919050565b5f82825260208201905092915050565b5f819050602082019050919050565b5f81519050919050565b5f82825260208201905092915050565b5f5b838110156117d65780820151818401526020810190506117bb565b5f8484015250505050565b5f601f19601f8301169050919050565b5f6117fb8261179f565b61180581856117a9565b93506118158185602086016117b9565b61181e816117e1565b840191505092915050565b5f819050919050565b61183b81611829565b82525050565b61184a81611743565b82525050565b5f608083015f8301518482035f86015261186a82826117f1565b915050602083015161187f6020860182611832565b5060408301516118926040860182611832565b5060608301516118a56060860182611841565b508091505092915050565b5f6118bb8383611850565b905092915050565b5f602082019050919050565b5f6118d982611776565b6118e38185611780565b9350836020820285016118f585611790565b805f5b85811015611930578484038952815161191185826118b0565b945061191c836118c3565b925060208a019950506001810190506118f8565b50829750879550505050505092915050565b5f6020820190508181035f83015261195a81846118cf565b905092915050565b5f60208284031215611977576119766116a3565b5b5f611984848285016116f1565b91505092915050565b61199681611829565b81146119a0575f80fd5b50565b5f813590506119b18161198d565b92915050565b5f602082840312156119cc576119cb6116a3565b5b5f6119d9848285016119a3565b91505092915050565b5f82825260208201905092915050565b5f6119fc8261179f565b611a0681856119e2565b9350611a168185602086016117b9565b611a1f816117e1565b840191505092915050565b611a3381611829565b82525050565b5f6080820190508181035f830152611a5181876119f2565b9050611a606020830186611a2a565b611a6d6040830185611a2a565b611a7a606083018461174e565b95945050505050565b5f80fd5b5f80fd5b7f4e487b71000000000000000000000000000000000000000000000000000000005f52604160045260245ffd5b611ac1826117e1565b810181811067ffffffffffffffff82111715611ae057611adf611a8b565b5b80604052505050565b5f611af261169a565b9050611afe8282611ab8565b919050565b5f67ffffffffffffffff821115611b1d57611b1c611a8b565b5b611b26826117e1565b9050602081019050919050565b828183375f83830152505050565b5f611b53611b4e84611b03565b611ae9565b905082815260208101848484011115611b6f57611b6e611a87565b5b611b7a848285611b33565b509392505050565b5f82601f830112611b9657611b95611a83565b5b8135611ba6848260208601611b41565b91505092915050565b5f60208284031215611bc457611bc36116a3565b5b5f82013567ffffffffffffffff811115611be157611be06116a7565b5b611bed84828501611b82565b91505092915050565b5f81519050919050565b5f82825260208201905092915050565b5f819050602082019050919050565b5f611c2a83836117f1565b905092915050565b5f602082019050919050565b5f611c4882611bf6565b611c528185611c00565b935083602082028501611c6485611c10565b805f5b85811015611c9f5784840389528151611c808582611c1f565b9450611c8b83611c32565b925060208a01995050600181019050611c67565b50829750879550505050505092915050565b5f6020820190508181035f830152611cc98184611c3e565b905092915050565b5f8060408385031215611ce757611ce66116a3565b5b5f611cf4858286016116f1565b9250506020611d05858286016119a3565b9150509250929050565b611d18816116ca565b82525050565b5f602082019050611d315f830184611d0f565b92915050565b5f8060408385031215611d4d57611d4c6116a3565b5b5f83013567ffffffffffffffff811115611d6a57611d696116a7565b5b611d7685828601611b82565b9250506020611d87858286016119a3565b9150509250929050565b7f4f6e6c792061646d696e69737472616f74722063616e2063616c6c20746869735f8201527f2066756e6374696f6e2e00000000000000000000000000000000000000000000602082015250565b5f611deb602a836119e2565b9150611df682611d91565b604082019050919050565b5f6020820190508181035f830152611e1881611ddf565b9050919050565b5f81905092915050565b50565b5f611e375f83611e1f565b9150611e4282611e29565b5f82019050919050565b5f611e5682611e2c565b9150819050919050565b7f5472616e73666572206661696c65642e000000000000000000000000000000005f82015250565b5f611e946010836119e2565b9150611e9f82611e60565b602082019050919050565b5f6020820190508181035f830152611ec181611e88565b9050919050565b7f4e487b71000000000000000000000000000000000000000000000000000000005f52602260045260245ffd5b5f6002820490506001821680611f0c57607f821691505b602082108103611f1f57611f1e611ec8565b5b50919050565b5f819050815f5260205f209050919050565b5f8154611f4381611ef5565b611f4d8186611e1f565b9450600182165f8114611f675760018114611f7c57611fae565b60ff1983168652811515820286019350611fae565b611f8585611f25565b5f5b83811015611fa657815481890152600182019150602081019050611f87565b838801955050505b50505092915050565b5f611fc28284611f37565b915081905092915050565b7f4e487b71000000000000000000000000000000000000000000000000000000005f52603260045260245ffd5b7f4e487b71000000000000000000000000000000000000000000000000000000005f52601160045260245ffd5b5f61203182611829565b91507fffffffffffffffffffffffffffffffffffffffffffffffffffffffffffffffff820361206357612062611ffa565b5b600182019050919050565b7f596f75206e65656420746f207369676e2075702066697273742e0000000000005f82015250565b5f6120a2601a836119e2565b91506120ad8261206e565b602082019050919050565b5f6020820190508181035f8301526120cf81612096565b9050919050565b7f496e76616c69642064656c656761746520616464726573732e000000000000005f82015250565b5f61210a6019836119e2565b9150612115826120d6565b602082019050919050565b5f6020820190508181035f830152612137816120fe565b9050919050565b5f8154905061214c81611ef5565b9050919050565b5f819050815f5260205f209050919050565b5f6020601f8301049050919050565b5f82821b905092915050565b5f600883026121af7fffffffffffffffffffffffffffffffffffffffffffffffffffffffffffffffff82612174565b6121b98683612174565b95508019841693508086168417925050509392505050565b5f819050919050565b5f6121f46121ef6121ea84611829565b6121d1565b611829565b9050919050565b5f819050919050565b61220d836121da565b612221612219826121fb565b848454612180565b825550505050565b5f90565b612235612229565b612240818484612204565b505050565b5b81811015612263576122585f8261222d565b600181019050612246565b5050565b601f8211156122a85761227981612153565b61228284612165565b81016020851015612291578190505b6122a561229d85612165565b830182612245565b50505b505050565b5f82821c905092915050565b5f6122c85f19846008026122ad565b1980831691505092915050565b5f6122e083836122b9565b9150826002028217905092915050565b8181036122fe5750506123d3565b6123078261213e565b67ffffffffffffffff8111156123205761231f611a8b565b5b61232a8254611ef5565b612335828285612267565b5f601f831160018114612362575f8415612350578287015490505b61235a85826122d5565b8655506123cc565b601f19841661237087612153565b965061237b86612153565b5f5b828110156123a25784890154825560018201915060018501945060208101905061237d565b868310156123bf57848901546123bb601f8916826122b9565b8355505b6001600288020188555050505b5050505050505b565b7f416c7265616479207369676e65642075702e00000000000000000000000000005f82015250565b5f6124096012836119e2565b9150612414826123d5565b602082019050919050565b5f6020820190508181035f830152612436816123fd565b9050919050565b6124468261179f565b67ffffffffffffffff81111561245f5761245e611a8b565b5b6124698254611ef5565b612474828285612267565b5f60209050601f8311600181146124a5575f8415612493578287015190505b61249d85826122d5565b865550612504565b601f1984166124b386612153565b5f5b828110156124da578489015182556001820191506020850194506020810190506124b5565b868310156124f757848901516124f3601f8916826122b9565b8355505b6001600288020188555050505b505050505050565b7f44656c656761746f72206e6565647320746f207369676e2075702066697273745f8201527f2e00000000000000000000000000000000000000000000000000000000000000602082015250565b5f6125666021836119e2565b91506125718261250c565b604082019050919050565b5f6020820190508181035f8301526125938161255a565b9050919050565b7f596f7520617265206e6f7420612074727573746565206f6620746869732064655f8201527f6c656761746f722e000000000000000000000000000000000000000000000000602082015250565b5f6125f46028836119e2565b91506125ff8261259a565b604082019050919050565b5f6020820190508181035f830152612621816125e8565b9050919050565b7f436f6e666572656e636520726567697374726174696f6e20697320636c6f73655f8201527f642e000000000000000000000000000000000000000000000000000000000000602082015250565b5f6126826022836119e2565b915061268d82612628565b604082019050919050565b5f6020820190508181035f8301526126af81612676565b9050919050565b7f436f6e666572656e63652069732066756c6c2e000000000000000000000000005f82015250565b5f6126ea6013836119e2565b91506126f5826126b6565b602082019050919050565b5f6020820190508181035f830152612717816126de565b9050919050565b5f8154905061272c81611ef5565b9050919050565b5f819050815f5260205f209050919050565b818103612753575050612828565b61275c8261271e565b67ffffffffffffffff81111561277557612774611a8b565b5b61277f8254611ef5565b61278a828285612267565b5f601f8311600181146127b7575f84156127a5578287015490505b6127af85826122d5565b865550612821565b601f1984166127c587612733565b96506127d086612153565b5f5b828110156127f7578489015482556001820191506001850194506020810190506127d2565b868310156128145784890154612810601f8916826122b9565b8355505b6001600288020188555050505b5050505050505b565b5f815461283681611ef5565b61284081866119e2565b9450600182165f811461285a5760018114612870576128a2565b60ff1983168652811515602002860193506128a2565b61287985612153565b5f5b8381101561289a5781548189015260018201915060208101905061287b565b808801955050505b50505092915050565b5f6040820190506128be5f830185611d0f565b81810360208301526128d0818461282a565b90509392505050565b5f6020820190508181035f8301526128f1818461282a565b905092915050565b7f496e76616c696420636f6e666572656e636520494400000000000000000000005f82015250565b5f61292d6015836119e2565b9150612938826128f9565b602082019050919050565b5f6020820190508181035f83015261295a81612921565b9050919050565b7f4d6178696d756d207061727469636970616e74206e756d626572206d757374205f8201527f3e20302e00000000000000000000000000000000000000000000000000000000602082015250565b5f6129bb6024836119e2565b91506129c682612961565b604082019050919050565b5f6020820190508181035f8301526129e8816129af565b9050919050565b5f6020820190508181035f830152612a0781846119f2565b90509291505056fea26469706673582212200b638f99b4bf1fb25266f8a51681f5c89e041412bea1ff658564f1c565ae4f1e64736f6c63430008140033",
  "immutableReferences": {},
  "source": "// SPDX-License-Identifier: MIT\npragma solidity >=0.4.22 <0.9.0;\n\ncontract ConferenceEnroll{\n    address public administrator;\n    struct Participant{\n        string name;\n        string[] conferences; // index of conferences, start from 0.\n    }\n    struct Conference{\n        string name;\n        uint maxPerson;\n        uint curPerson;\n        bool canRegister;\n    }\n    // \n    mapping(address=>Participant) participants;\n    // \n    Conference[] public conferences;\n    // \n    mapping(address=>Participant[]) trustees;\n\n    event ConferenceExpire(string _name);\n    event NewConference(string _name);\n    event MyNewConference(address participant, string confName);\n    \n\n    modifier onlyAdministrator(){\n        require(msg.sender == administrator, \"Only administraotr can call this function.\");\n        _;\n    }\n\n    constructor() {\n        administrator = msg.sender;\n    }\n\n    function signUp(string memory _name) public {\n        require(bytes(participants[msg.sender].name).length == 0, \"Already signed up.\");\n        participants[msg.sender] = Participant({ name: _name, conferences: new string[](0)});\n    }\n\n    function delegate(address _to) public {\n        require(bytes(participants[msg.sender].name).length > 0, \"You need to sign up first.\");\n        require(_to != address(0), \"Invalid delegate address.\");\n        trustees[_to].push(participants[msg.sender]);\n    }\n\n    function enroll(uint _conferenceId) public {\n        require(_conferenceId < conferences.length, \"Invalid conference ID\");\n        require(bytes(participants[msg.sender].name).length > 0, \"You need to sign up first.\");\n        Conference storage conf = conferences[_conferenceId];\n        require(conf.canRegister, \"Conference registration is closed.\");\n        require(conf.curPerson < conf.maxPerson, \"Conference is full.\");\n\n        conf.curPerson++;\n        participants[msg.sender].conferences.push(conf.name);\n        emit MyNewConference(msg.sender,conf.name);\n        if(conf.curPerson >= conf.maxPerson){\n            conf.canRegister = false;\n            emit ConferenceExpire(conf.name);\n        }\n\n    }\n\n    function isTrustee(address _trustee, address _delegator) public view returns(bool){\n        Participant[] memory delegators = trustees[_trustee];\n        for(uint i = 0;i<delegators.length; i++){\n            if(keccak256(bytes(delegators[i].name)) == keccak256(bytes(participants[_delegator].name))){\n                return true;\n            }\n        }\n        return false;\n    }\n\n    // delegator: enroll for who\n    function enrollFor(address _delegator, uint _conferenceId) public {\n        require(bytes(participants[_delegator].name).length > 0, \"Delegator needs to sign up first.\");\n        require(isTrustee(msg.sender, _delegator), \"You are not a trustee of this delegator.\");\n\n        Conference storage conf = conferences[_conferenceId];\n        require(conf.canRegister, \"Conference registration is closed.\");\n        require(conf.curPerson < conf.maxPerson, \"Conference is full.\");\n\n        conf.curPerson++;\n        participants[_delegator].conferences.push(conf.name);\n        emit MyNewConference(_delegator, conf.name);\n        if(conf.curPerson >= conf.maxPerson){\n            conf.canRegister = false;\n            emit ConferenceExpire(conf.name);\n        }\n\n    }\n\n    // administrator\n    function newConference(string memory _name, uint _maxPerson) public onlyAdministrator {\n        require(_maxPerson > 0, \"Maximum participant number must > 0.\");\n        conferences.push(Conference({\n            name: _name,\n            maxPerson: _maxPerson,\n            curPerson: 0,\n            canRegister: true\n        }));\n        emit NewConference(_name);\n    }\n    // function destruct() private onlyAdministrator {\n    //     selfdestruct(payable(administrator));\n    // }\n    function destruct() public payable onlyAdministrator {\n        require(msg.sender == administrator);\n        (bool success,) = payable(administrator).call{value: address(this).balance}(\"\");\n        require(success, \"Transfer failed.\");\n    }\n\n    // search functions\n    function queryConfList() public view returns (Conference[] memory){\n        uint cnt = 0;\n        for(uint i = 0;i<conferences.length;i++){\n            if(conferences[i].canRegister){\n                cnt++;\n            }\n        }\n        Conference[] memory openConfs = new Conference[](cnt);\n        uint idx = 0;\n        for (uint j=0 ;j<conferences.length;j++){\n            if(!conferences[j].canRegister){\n                openConfs[idx] = conferences[j];\n                idx++;\n            }\n        }\n        return openConfs;\n    }\n\n\n    function queryMyConf() public view returns (string[] memory) {\n        return participants[msg.sender].conferences;\n    }\n\n\n}",
  "sourcePath": "/mnt/d/learn/2024_Autumn/lab7dapp/lab8/contracts/Enrollment.sol",
  "compiler": {
    "name": "solc",
    "version": "0.8.20+commit.a1b79de6.Emscripten.clang"
  },
  "schemaVersion": "3.4.16",
  "updatedAt": "2024-12-06T03:11:11.590Z",
  "devdoc": {
    "kind": "dev",
    "methods": {},
    "version": 1
  },
  "userdoc": {
    "kind": "user",
    "methods": {},
    "version": 1
  }
}