{
  "contractName": "Enrollment",
  "abi": [
    {
      "inputs": [],
      "stateMutability": "nonpayable",
      "type": "constructor"
    },
    {
      "anonymous": false,
      "inputs": [
        {
          "indexed": false,
          "internalType": "string",
          "name": "_name",
          "type": "string"
        }
      ],
      "name": "ConferenceExpire",
      "type": "event"
    },
    {
      "anonymous": false,
      "inputs": [
        {
          "indexed": false,
          "internalType": "address",
          "name": "participant",
          "type": "address"
        },
        {
          "indexed": false,
          "internalType": "string",
          "name": "confName",
          "type": "string"
        }
      ],
      "name": "MyNewConference",
      "type": "event"
    },
    {
      "anonymous": false,
      "inputs": [
        {
          "indexed": false,
          "internalType": "string",
          "name": "_name",
          "type": "string"
        }
      ],
      "name": "NewConference",
      "type": "event"
    },
    {
      "inputs": [],
      "name": "administrator",
      "outputs": [
        {
          "internalType": "address",
          "name": "",
          "type": "address"
        }
      ],
      "stateMutability": "view",
      "type": "function",
      "constant": true
    },
    {
      "inputs": [
        {
          "internalType": "uint256",
          "name": "",
          "type": "uint256"
        }
      ],
      "name": "conferences",
      "outputs": [
        {
          "internalType": "string",
          "name": "name",
          "type": "string"
        },
        {
          "internalType": "string",
          "name": "detail",
          "type": "string"
        },
        {
          "internalType": "uint256",
          "name": "maxPerson",
          "type": "uint256"
        },
        {
          "internalType": "uint256",
          "name": "curPerson",
          "type": "uint256"
        },
        {
          "internalType": "bool",
          "name": "canRegister",
          "type": "bool"
        }
      ],
      "stateMutability": "view",
      "type": "function",
      "constant": true
    },
    {
      "inputs": [
        {
          "internalType": "string",
          "name": "_name",
          "type": "string"
        }
      ],
      "name": "signUp",
      "outputs": [],
      "stateMutability": "nonpayable",
      "type": "function"
    },
    {
      "inputs": [
        {
          "internalType": "string",
          "name": "_conferenceName",
          "type": "string"
        }
      ],
      "name": "enroll",
      "outputs": [],
      "stateMutability": "nonpayable",
      "type": "function"
    },
    {
      "inputs": [
        {
          "internalType": "address",
          "name": "_trustee",
          "type": "address"
        },
        {
          "internalType": "address",
          "name": "_delegator",
          "type": "address"
        }
      ],
      "name": "isTrustee",
      "outputs": [
        {
          "internalType": "bool",
          "name": "",
          "type": "bool"
        }
      ],
      "stateMutability": "view",
      "type": "function",
      "constant": true
    },
    {
      "inputs": [
        {
          "internalType": "address",
          "name": "_to",
          "type": "address"
        }
      ],
      "name": "delegate",
      "outputs": [],
      "stateMutability": "nonpayable",
      "type": "function"
    },
    {
      "inputs": [
        {
          "internalType": "address",
          "name": "_delegator",
          "type": "address"
        },
        {
          "internalType": "string",
          "name": "_conferenceName",
          "type": "string"
        }
      ],
      "name": "enrollFor",
      "outputs": [],
      "stateMutability": "nonpayable",
      "type": "function"
    },
    {
      "inputs": [
        {
          "internalType": "string",
          "name": "_name",
          "type": "string"
        },
        {
          "internalType": "string",
          "name": "_detail",
          "type": "string"
        },
        {
          "internalType": "uint256",
          "name": "_maxPerson",
          "type": "uint256"
        }
      ],
      "name": "newConference",
      "outputs": [],
      "stateMutability": "nonpayable",
      "type": "function"
    },
    {
      "inputs": [],
      "name": "destruct",
      "outputs": [],
      "stateMutability": "payable",
      "type": "function",
      "payable": true
    },
    {
      "inputs": [],
      "name": "queryConfList",
      "outputs": [
        {
          "components": [
            {
              "internalType": "string",
              "name": "name",
              "type": "string"
            },
            {
              "internalType": "string",
              "name": "detail",
              "type": "string"
            },
            {
              "internalType": "uint256",
              "name": "maxPerson",
              "type": "uint256"
            },
            {
              "internalType": "uint256",
              "name": "curPerson",
              "type": "uint256"
            },
            {
              "internalType": "bool",
              "name": "canRegister",
              "type": "bool"
            }
          ],
          "internalType": "struct Enrollment.Conference[]",
          "name": "",
          "type": "tuple[]"
        }
      ],
      "stateMutability": "view",
      "type": "function",
      "constant": true
    },
    {
      "inputs": [],
      "name": "queryMyConf",
      "outputs": [
        {
          "internalType": "string[]",
          "name": "",
          "type": "string[]"
        }
      ],
      "stateMutability": "view",
      "type": "function",
      "constant": true
    },
    {
      "inputs": [
        {
          "internalType": "address",
          "name": "_participant",
          "type": "address"
        }
      ],
      "name": "getParticipantName",
      "outputs": [
        {
          "internalType": "string",
          "name": "",
          "type": "string"
        }
      ],
      "stateMutability": "view",
      "type": "function",
      "constant": true
    },
    {
      "inputs": [
        {
          "internalType": "address",
          "name": "_participant",
          "type": "address"
        }
      ],
      "name": "getParticipantConfList",
      "outputs": [
        {
          "internalType": "string[]",
          "name": "",
          "type": "string[]"
        }
      ],
      "stateMutability": "view",
      "type": "function",
      "constant": true
    }
  ],
  "bytecode": "0x608060405234801561001057600080fd5b50336000806101000a81548173ffffffffffffffffffffffffffffffffffffffff021916908373ffffffffffffffffffffffffffffffffffffffff160217905550612d25806100606000396000f3fe6080604052600436106100c25760003560e01c806361f572611161007f578063aa48c91011610059578063aa48c9101461025b578063adcfb4fc14610298578063bf3d6af8146102c1578063f53d0a8e146102ec576100c2565b806361f57261146101c857806367b09cdb146101f157806379fe9a9a1461021a576100c2565b80632b68b9c6146100c75780632ed1dc61146100d1578063312e1d291461010e57806331384cff146101395780635335b970146101765780635c19a95c1461019f575b600080fd5b6100cf610317565b005b3480156100dd57600080fd5b506100f860048036038101906100f39190611dd4565b6104cd565b6040516101059190611e2f565b60405180910390f35b34801561011a57600080fd5b5061012361078b565b604051610130919061204a565b60405180910390f35b34801561014557600080fd5b50610160600480360381019061015b919061206c565b610a64565b60405161016d91906120e3565b60405180910390f35b34801561018257600080fd5b5061019d6004803603810190610198919061223a565b610b38565b005b3480156101ab57600080fd5b506101c660048036038101906101c1919061206c565b610e12565b005b3480156101d457600080fd5b506101ef60048036038101906101ea91906122c2565b610ff5565b005b3480156101fd57600080fd5b506102186004803603810190610213919061234d565b6111c8565b005b34801561022657600080fd5b50610241600480360381019061023c9190612396565b61151a565b6040516102529594939291906123d2565b60405180910390f35b34801561026757600080fd5b50610282600480360381019061027d919061206c565b61167d565b60405161028f91906124f5565b60405180910390f35b3480156102a457600080fd5b506102bf60048036038101906102ba919061234d565b611798565b005b3480156102cd57600080fd5b506102d661190b565b6040516102e391906124f5565b60405180910390f35b3480156102f857600080fd5b50610301611a24565b60405161030e9190612526565b60405180910390f35b60008054906101000a900473ffffffffffffffffffffffffffffffffffffffff1673ffffffffffffffffffffffffffffffffffffffff163373ffffffffffffffffffffffffffffffffffffffff16146103a5576040517f08c379a000000000000000000000000000000000000000000000000000000000815260040161039c906125b3565b60405180910390fd5b60008054906101000a900473ffffffffffffffffffffffffffffffffffffffff1673ffffffffffffffffffffffffffffffffffffffff163373ffffffffffffffffffffffffffffffffffffffff16146103fd57600080fd5b60008060009054906101000a900473ffffffffffffffffffffffffffffffffffffffff1673ffffffffffffffffffffffffffffffffffffffff164760405161044490612604565b60006040518083038185875af1925050503d8060008114610481576040519150601f19603f3d011682016040523d82523d6000602084013e610486565b606091505b50509050806104ca576040517f08c379a00000000000000000000000000000000000000000000000000000000081526004016104c190612665565b60405180910390fd5b50565b600080600360008573ffffffffffffffffffffffffffffffffffffffff1673ffffffffffffffffffffffffffffffffffffffff168152602001908152602001600020805480602002602001604051908101604052809291908181526020016000905b828210156106cc5783829060005260206000209060020201604051806040016040529081600082018054610562906126b4565b80601f016020809104026020016040519081016040528092919081815260200182805461058e906126b4565b80156105db5780601f106105b0576101008083540402835291602001916105db565b820191906000526020600020905b8154815290600101906020018083116105be57829003601f168201915b5050505050815260200160018201805480602002602001604051908101604052809291908181526020016000905b828210156106b5578382906000526020600020018054610628906126b4565b80601f0160208091040260200160405190810160405280929190818152602001828054610654906126b4565b80156106a15780601f10610676576101008083540402835291602001916106a1565b820191906000526020600020905b81548152906001019060200180831161068457829003601f168201915b505050505081526020019060010190610609565b50505050815250508152602001906001019061052f565b50505050905060005b815181101561077e57600160008573ffffffffffffffffffffffffffffffffffffffff1673ffffffffffffffffffffffffffffffffffffffff16815260200190815260200160002060000160405161072d9190612779565b604051809103902082828151811061074857610747612790565b5b602002602001015160000151805190602001200361076b57600192505050610785565b8080610776906127ee565b9150506106d5565b5060009150505b92915050565b60606000805b6002805490508110156107f857600281815481106107b2576107b1612790565b5b906000526020600020906005020160040160009054906101000a900460ff16156107e55781806107e1906127ee565b9250505b80806107f0906127ee565b915050610791565b5060008167ffffffffffffffff8111156108155761081461210f565b5b60405190808252806020026020018201604052801561084e57816020015b61083b611a48565b8152602001906001900390816108335790505b5090506000805b600280549050811015610a5a576002818154811061087657610875612790565b5b906000526020600020906005020160040160009054906101000a900460ff1615610a4757600281815481106108ae576108ad612790565b5b90600052602060002090600502016040518060a00160405290816000820180546108d7906126b4565b80601f0160208091040260200160405190810160405280929190818152602001828054610903906126b4565b80156109505780601f1061092557610100808354040283529160200191610950565b820191906000526020600020905b81548152906001019060200180831161093357829003601f168201915b50505050508152602001600182018054610969906126b4565b80601f0160208091040260200160405190810160405280929190818152602001828054610995906126b4565b80156109e25780601f106109b7576101008083540402835291602001916109e2565b820191906000526020600020905b8154815290600101906020018083116109c557829003601f168201915b5050505050815260200160028201548152602001600382015481526020016004820160009054906101000a900460ff161515151581525050838381518110610a2d57610a2c612790565b5b60200260200101819052508180610a43906127ee565b9250505b8080610a52906127ee565b915050610855565b5081935050505090565b6060600160008373ffffffffffffffffffffffffffffffffffffffff1673ffffffffffffffffffffffffffffffffffffffff1681526020019081526020016000206000018054610ab3906126b4565b80601f0160208091040260200160405190810160405280929190818152602001828054610adf906126b4565b8015610b2c5780601f10610b0157610100808354040283529160200191610b2c565b820191906000526020600020905b815481529060010190602001808311610b0f57829003601f168201915b50505050509050919050565b6000600160003373ffffffffffffffffffffffffffffffffffffffff1673ffffffffffffffffffffffffffffffffffffffff1681526020019081526020016000206000018054610b87906126b4565b905011610bc9576040517f08c379a0000000000000000000000000000000000000000000000000000000008152600401610bc090612882565b60405180910390fd5b610bd333836104cd565b610c12576040517f08c379a0000000000000000000000000000000000000000000000000000000008152600401610c0990612914565b60405180910390fd5b60008060005b600280549050811015610c8b57838051906020012060028281548110610c4157610c40612790565b5b9060005260206000209060050201600001604051610c5f9190612779565b604051809103902003610c785760019250809150610c8b565b8080610c83906127ee565b915050610c18565b5081610ccc576040517f08c379a0000000000000000000000000000000000000000000000000000000008152600401610cc390612980565b60405180910390fd5b600060028281548110610ce257610ce1612790565b5b906000526020600020906005020190508060040160009054906101000a900460ff16610d43576040517f08c379a0000000000000000000000000000000000000000000000000000000008152600401610d3a90612a12565b60405180910390fd5b8060020154816003015410610d8d576040517f08c379a0000000000000000000000000000000000000000000000000000000008152600401610d8490612a7e565b60405180910390fd5b806003016000815480929190610da2906127ee565b91905055508060020154816003015410610e0b5760008160040160006101000a81548160ff0219169083151502179055507f4116eed53c5dbdbaa5ceb05d02a470f96b83428606acdc17b43009818c246f5f84604051610e0291906120e3565b60405180910390a15b5050505050565b6000600160003373ffffffffffffffffffffffffffffffffffffffff1673ffffffffffffffffffffffffffffffffffffffff1681526020019081526020016000206000018054610e61906126b4565b905011610ea3576040517f08c379a0000000000000000000000000000000000000000000000000000000008152600401610e9a90612882565b60405180910390fd5b600073ffffffffffffffffffffffffffffffffffffffff168173ffffffffffffffffffffffffffffffffffffffff1603610f12576040517f08c379a0000000000000000000000000000000000000000000000000000000008152600401610f0990612aea565b60405180910390fd5b600360008273ffffffffffffffffffffffffffffffffffffffff1673ffffffffffffffffffffffffffffffffffffffff168152602001908152602001600020600160003373ffffffffffffffffffffffffffffffffffffffff1673ffffffffffffffffffffffffffffffffffffffff16815260200190815260200160002090806001815401808255809150506001900390600052602060002090600202016000909190919091506000820181600001908054610fcd906126b4565b610fd8929190611a79565b506001820181600101908054610fef929190611b06565b50505050565b60008054906101000a900473ffffffffffffffffffffffffffffffffffffffff1673ffffffffffffffffffffffffffffffffffffffff163373ffffffffffffffffffffffffffffffffffffffff1614611083576040517f08c379a000000000000000000000000000000000000000000000000000000000815260040161107a906125b3565b60405180910390fd5b600081116110c6576040517f08c379a00000000000000000000000000000000000000000000000000000000081526004016110bd90612b7c565b60405180910390fd5b60026040518060a00160405280858152602001848152602001838152602001600081526020016001151581525090806001815401808255809150506001900390600052602060002090600502016000909190919091506000820151816000019080519060200190611138929190611b6e565b506020820151816001019080519060200190611155929190611b6e565b50604082015181600201556060820151816003015560808201518160040160006101000a81548160ff02191690831515021790555050507f66cbba04da927bffa6177e9ae7e4a4cc81001fb5cb41a15098569f2e11dba1c0836040516111bb91906120e3565b60405180910390a1505050565b60008060005b600280549050811015611241578380519060200120600282815481106111f7576111f6612790565b5b90600052602060002090600502016000016040516112159190612779565b60405180910390200361122e5760019250809150611241565b8080611239906127ee565b9150506111ce565b506000600160003373ffffffffffffffffffffffffffffffffffffffff1673ffffffffffffffffffffffffffffffffffffffff1681526020019081526020016000206000018054611291906126b4565b9050116112d3576040517f08c379a00000000000000000000000000000000000000000000000000000000081526004016112ca90612882565b60405180910390fd5b81611313576040517f08c379a000000000000000000000000000000000000000000000000000000000815260040161130a90612980565b60405180910390fd5b60006002828154811061132957611328612790565b5b906000526020600020906005020190508060040160009054906101000a900460ff1661138a576040517f08c379a000000000000000000000000000000000000000000000000000000000815260040161138190612a12565b60405180910390fd5b80600201548160030154106113d4576040517f08c379a00000000000000000000000000000000000000000000000000000000081526004016113cb90612a7e565b60405180910390fd5b8060030160008154809291906113e9906127ee565b9190505550600160003373ffffffffffffffffffffffffffffffffffffffff1673ffffffffffffffffffffffffffffffffffffffff1681526020019081526020016000206001018160000190806001815401808255809150506001900390600052602060002001600090919091909150908054611465906126b4565b611470929190611bf4565b507f9799d9c50381c70b2e1942d0f4db9a83f6bf127844bda25f47d5a85e2182f89033826000016040516114a5929190612c31565b60405180910390a180600201548160030154106115145760008160040160006101000a81548160ff0219169083151502179055507f4116eed53c5dbdbaa5ceb05d02a470f96b83428606acdc17b43009818c246f5f8160000160405161150b9190612c61565b60405180910390a15b50505050565b6002818154811061152a57600080fd5b906000526020600020906005020160009150905080600001805461154d906126b4565b80601f0160208091040260200160405190810160405280929190818152602001828054611579906126b4565b80156115c65780601f1061159b576101008083540402835291602001916115c6565b820191906000526020600020905b8154815290600101906020018083116115a957829003601f168201915b5050505050908060010180546115db906126b4565b80601f0160208091040260200160405190810160405280929190818152602001828054611607906126b4565b80156116545780601f1061162957610100808354040283529160200191611654565b820191906000526020600020905b81548152906001019060200180831161163757829003601f168201915b5050505050908060020154908060030154908060040160009054906101000a900460ff16905085565b6060600160008373ffffffffffffffffffffffffffffffffffffffff1673ffffffffffffffffffffffffffffffffffffffff168152602001908152602001600020600101805480602002602001604051908101604052809291908181526020016000905b8282101561178d578382906000526020600020018054611700906126b4565b80601f016020809104026020016040519081016040528092919081815260200182805461172c906126b4565b80156117795780601f1061174e57610100808354040283529160200191611779565b820191906000526020600020905b81548152906001019060200180831161175c57829003601f168201915b5050505050815260200190600101906116e1565b505050509050919050565b6000600160003373ffffffffffffffffffffffffffffffffffffffff1673ffffffffffffffffffffffffffffffffffffffff16815260200190815260200160002060000180546117e7906126b4565b905014611829576040517f08c379a000000000000000000000000000000000000000000000000000000000815260040161182090612ccf565b60405180910390fd5b6040518060400160405280828152602001600067ffffffffffffffff8111156118555761185461210f565b5b60405190808252806020026020018201604052801561188857816020015b60608152602001906001900390816118735790505b50815250600160003373ffffffffffffffffffffffffffffffffffffffff1673ffffffffffffffffffffffffffffffffffffffff16815260200190815260200160002060008201518160000190805190602001906118e7929190611b6e565b506020820151816001019080519060200190611904929190611c81565b5090505050565b6060600160003373ffffffffffffffffffffffffffffffffffffffff1673ffffffffffffffffffffffffffffffffffffffff168152602001908152602001600020600101805480602002602001604051908101604052809291908181526020016000905b82821015611a1b57838290600052602060002001805461198e906126b4565b80601f01602080910402602001604051908101604052809291908181526020018280546119ba906126b4565b8015611a075780601f106119dc57610100808354040283529160200191611a07565b820191906000526020600020905b8154815290600101906020018083116119ea57829003601f168201915b50505050508152602001906001019061196f565b50505050905090565b60008054906101000a900473ffffffffffffffffffffffffffffffffffffffff1681565b6040518060a00160405280606081526020016060815260200160008152602001600081526020016000151581525090565b828054611a85906126b4565b90600052602060002090601f016020900481019282611aa75760008555611af5565b82601f10611ab85780548555611af5565b82800160010185558215611af557600052602060002091601f016020900482015b82811115611af4578254825591600101919060010190611ad9565b5b509050611b029190611ce1565b5090565b828054828255906000526020600020908101928215611b5d5760005260206000209182015b82811115611b5c578282908054611b41906126b4565b611b4c929190611a79565b5091600101919060010190611b2b565b5b509050611b6a9190611cfe565b5090565b828054611b7a906126b4565b90600052602060002090601f016020900481019282611b9c5760008555611be3565b82601f10611bb557805160ff1916838001178555611be3565b82800160010185558215611be3579182015b82811115611be2578251825591602001919060010190611bc7565b5b509050611bf09190611ce1565b5090565b828054611c00906126b4565b90600052602060002090601f016020900481019282611c225760008555611c70565b82601f10611c335780548555611c70565b82800160010185558215611c7057600052602060002091601f016020900482015b82811115611c6f578254825591600101919060010190611c54565b5b509050611c7d9190611ce1565b5090565b828054828255906000526020600020908101928215611cd0579160200282015b82811115611ccf578251829080519060200190611cbf929190611b6e565b5091602001919060010190611ca1565b5b509050611cdd9190611cfe565b5090565b5b80821115611cfa576000816000905550600101611ce2565b5090565b5b80821115611d1e5760008181611d159190611d22565b50600101611cff565b5090565b508054611d2e906126b4565b6000825580601f10611d405750611d5f565b601f016020900490600052602060002090810190611d5e9190611ce1565b5b50565b6000604051905090565b600080fd5b600080fd5b600073ffffffffffffffffffffffffffffffffffffffff82169050919050565b6000611da182611d76565b9050919050565b611db181611d96565b8114611dbc57600080fd5b50565b600081359050611dce81611da8565b92915050565b60008060408385031215611deb57611dea611d6c565b5b6000611df985828601611dbf565b9250506020611e0a85828601611dbf565b9150509250929050565b60008115159050919050565b611e2981611e14565b82525050565b6000602082019050611e446000830184611e20565b92915050565b600081519050919050565b600082825260208201905092915050565b6000819050602082019050919050565b600081519050919050565b600082825260208201905092915050565b60005b83811015611eb0578082015181840152602081019050611e95565b83811115611ebf576000848401525b50505050565b6000601f19601f8301169050919050565b6000611ee182611e76565b611eeb8185611e81565b9350611efb818560208601611e92565b611f0481611ec5565b840191505092915050565b6000819050919050565b611f2281611f0f565b82525050565b611f3181611e14565b82525050565b600060a0830160008301518482036000860152611f548282611ed6565b91505060208301518482036020860152611f6e8282611ed6565b9150506040830151611f836040860182611f19565b506060830151611f966060860182611f19565b506080830151611fa96080860182611f28565b508091505092915050565b6000611fc08383611f37565b905092915050565b6000602082019050919050565b6000611fe082611e4a565b611fea8185611e55565b935083602082028501611ffc85611e66565b8060005b8581101561203857848403895281516120198582611fb4565b945061202483611fc8565b925060208a01995050600181019050612000565b50829750879550505050505092915050565b600060208201905081810360008301526120648184611fd5565b905092915050565b60006020828403121561208257612081611d6c565b5b600061209084828501611dbf565b91505092915050565b600082825260208201905092915050565b60006120b582611e76565b6120bf8185612099565b93506120cf818560208601611e92565b6120d881611ec5565b840191505092915050565b600060208201905081810360008301526120fd81846120aa565b905092915050565b600080fd5b600080fd5b7f4e487b7100000000000000000000000000000000000000000000000000000000600052604160045260246000fd5b61214782611ec5565b810181811067ffffffffffffffff821117156121665761216561210f565b5b80604052505050565b6000612179611d62565b9050612185828261213e565b919050565b600067ffffffffffffffff8211156121a5576121a461210f565b5b6121ae82611ec5565b9050602081019050919050565b82818337600083830152505050565b60006121dd6121d88461218a565b61216f565b9050828152602081018484840111156121f9576121f861210a565b5b6122048482856121bb565b509392505050565b600082601f83011261222157612220612105565b5b81356122318482602086016121ca565b91505092915050565b6000806040838503121561225157612250611d6c565b5b600061225f85828601611dbf565b925050602083013567ffffffffffffffff8111156122805761227f611d71565b5b61228c8582860161220c565b9150509250929050565b61229f81611f0f565b81146122aa57600080fd5b50565b6000813590506122bc81612296565b92915050565b6000806000606084860312156122db576122da611d6c565b5b600084013567ffffffffffffffff8111156122f9576122f8611d71565b5b6123058682870161220c565b935050602084013567ffffffffffffffff81111561232657612325611d71565b5b6123328682870161220c565b9250506040612343868287016122ad565b9150509250925092565b60006020828403121561236357612362611d6c565b5b600082013567ffffffffffffffff81111561238157612380611d71565b5b61238d8482850161220c565b91505092915050565b6000602082840312156123ac576123ab611d6c565b5b60006123ba848285016122ad565b91505092915050565b6123cc81611f0f565b82525050565b600060a08201905081810360008301526123ec81886120aa565b9050818103602083015261240081876120aa565b905061240f60408301866123c3565b61241c60608301856123c3565b6124296080830184611e20565b9695505050505050565b600081519050919050565b600082825260208201905092915050565b6000819050602082019050919050565b600061246b8383611ed6565b905092915050565b6000602082019050919050565b600061248b82612433565b612495818561243e565b9350836020820285016124a78561244f565b8060005b858110156124e357848403895281516124c4858261245f565b94506124cf83612473565b925060208a019950506001810190506124ab565b50829750879550505050505092915050565b6000602082019050818103600083015261250f8184612480565b905092915050565b61252081611d96565b82525050565b600060208201905061253b6000830184612517565b92915050565b7f4f6e6c792061646d696e69737472616f74722063616e2063616c6c207468697360008201527f2066756e6374696f6e2e00000000000000000000000000000000000000000000602082015250565b600061259d602a83612099565b91506125a882612541565b604082019050919050565b600060208201905081810360008301526125cc81612590565b9050919050565b600081905092915050565b50565b60006125ee6000836125d3565b91506125f9826125de565b600082019050919050565b600061260f826125e1565b9150819050919050565b7f5472616e73666572206661696c65642e00000000000000000000000000000000600082015250565b600061264f601083612099565b915061265a82612619565b602082019050919050565b6000602082019050818103600083015261267e81612642565b9050919050565b7f4e487b7100000000000000000000000000000000000000000000000000000000600052602260045260246000fd5b600060028204905060018216806126cc57607f821691505b6020821081036126df576126de612685565b5b50919050565b60008190508160005260206000209050919050565b60008154612707816126b4565b61271181866125d3565b9450600182166000811461272c576001811461273d57612770565b60ff19831686528186019350612770565b612746856126e5565b60005b8381101561276857815481890152600182019150602081019050612749565b838801955050505b50505092915050565b600061278582846126fa565b915081905092915050565b7f4e487b7100000000000000000000000000000000000000000000000000000000600052603260045260246000fd5b7f4e487b7100000000000000000000000000000000000000000000000000000000600052601160045260246000fd5b60006127f982611f0f565b91507fffffffffffffffffffffffffffffffffffffffffffffffffffffffffffffffff820361282b5761282a6127bf565b5b600182019050919050565b7f596f75206e65656420746f207369676e2075702066697273742e000000000000600082015250565b600061286c601a83612099565b915061287782612836565b602082019050919050565b6000602082019050818103600083015261289b8161285f565b9050919050565b7f596f7520617265206e6f7420617574686f72697a656420666f7220746869732060008201527f757365722e000000000000000000000000000000000000000000000000000000602082015250565b60006128fe602583612099565b9150612909826128a2565b604082019050919050565b6000602082019050818103600083015261292d816128f1565b9050919050565b7f436f6e666572656e6365206e6f7420666f756e642e0000000000000000000000600082015250565b600061296a601583612099565b915061297582612934565b602082019050919050565b600060208201905081810360008301526129998161295d565b9050919050565b7f436f6e666572656e636520726567697374726174696f6e20697320636c6f736560008201527f642e000000000000000000000000000000000000000000000000000000000000602082015250565b60006129fc602283612099565b9150612a07826129a0565b604082019050919050565b60006020820190508181036000830152612a2b816129ef565b9050919050565b7f436f6e666572656e63652069732066756c6c2e00000000000000000000000000600082015250565b6000612a68601383612099565b9150612a7382612a32565b602082019050919050565b60006020820190508181036000830152612a9781612a5b565b9050919050565b7f496e76616c69642064656c656761746520616464726573732e00000000000000600082015250565b6000612ad4601983612099565b9150612adf82612a9e565b602082019050919050565b60006020820190508181036000830152612b0381612ac7565b9050919050565b7f4d6178696d756d207061727469636970616e74206e756d626572206d7573742060008201527f3e20302e00000000000000000000000000000000000000000000000000000000602082015250565b6000612b66602483612099565b9150612b7182612b0a565b604082019050919050565b60006020820190508181036000830152612b9581612b59565b9050919050565b60008190508160005260206000209050919050565b60008154612bbe816126b4565b612bc88186612099565b94506001821660008114612be35760018114612bf557612c28565b60ff1983168652602086019350612c28565b612bfe85612b9c565b60005b83811015612c2057815481890152600182019150602081019050612c01565b808801955050505b50505092915050565b6000604082019050612c466000830185612517565b8181036020830152612c588184612bb1565b90509392505050565b60006020820190508181036000830152612c7b8184612bb1565b905092915050565b7f416c7265616479207369676e65642075702e0000000000000000000000000000600082015250565b6000612cb9601283612099565b9150612cc482612c83565b602082019050919050565b60006020820190508181036000830152612ce881612cac565b905091905056fea2646970667358221220bc05bf5f2bd93f9bb4461d4946439a3af35525f0730f2677477d17cd9f48f2de64736f6c634300080d0033",
  "immutableReferences": {},
  "source": "// SPDX-License-Identifier: MIT\npragma solidity ^0.8.13;\npragma experimental ABIEncoderV2;\n\ncontract Enrollment{\n    address public administrator;\n    struct Participant{\n        string name;\n        string[] conferences; // index of conferences, start from 0.\n    }\n    struct Conference{\n        string name;\n        string detail;\n        uint maxPerson;\n        uint curPerson;\n        bool canRegister;\n    }\n    // \n    mapping(address=>Participant) participants;\n    // \n    Conference[] public conferences;\n    // \n    mapping(address=>Participant[]) trustees;\n\n    event ConferenceExpire(string _name);\n    event NewConference(string _name);\n    event MyNewConference(address participant, string confName);\n    \n\n    modifier onlyAdministrator(){\n        require(msg.sender == administrator, \"Only administraotr can call this function.\");\n        _;\n    }\n\n    constructor() {\n        administrator = msg.sender;\n    }\n\n    function signUp(string memory _name) public {\n        require(bytes(participants[msg.sender].name).length == 0, \"Already signed up.\");\n        participants[msg.sender] = Participant({ name: _name, conferences: new string[](0)});\n    }\n\n    function enroll(string memory _conferenceName) public {\n        bool found = false; // \n        uint conferenceIndex = 0;\n        //  conferences \n        for (uint i = 0; i < conferences.length; i++) {\n            if (keccak256(bytes(conferences[i].name)) == keccak256(bytes(_conferenceName))) {\n                found = true;\n                conferenceIndex = i; // \n                break;\n            }\n        }\n        require(bytes(participants[msg.sender].name).length > 0, \"You need to sign up first.\");\n        require(found, \"Conference not found.\");\n        Conference storage conf = conferences[conferenceIndex];\n        require(conf.canRegister, \"Conference registration is closed.\");\n        require(conf.curPerson < conf.maxPerson, \"Conference is full.\");\n        conf.curPerson++;\n        participants[msg.sender].conferences.push(conf.name);\n        emit MyNewConference(msg.sender, conf.name);\n\n        if (conf.curPerson >= conf.maxPerson) {\n            conf.canRegister = false;\n            emit ConferenceExpire(conf.name);\n        }\n    }\n\n    function isTrustee(address _trustee, address _delegator) public view returns(bool){\n        Participant[] memory delegators = trustees[_trustee];\n        for(uint i = 0;i<delegators.length; i++){\n            if(keccak256(bytes(delegators[i].name)) == keccak256(bytes(participants[_delegator].name))){\n                return true;\n            }\n        }\n        return false;\n    }\n\n    function delegate(address _to) public {\n        require(bytes(participants[msg.sender].name).length > 0, \"You need to sign up first.\");\n        require(_to != address(0), \"Invalid delegate address.\");\n        trustees[_to].push(participants[msg.sender]);\n    }\n\n    // delegator: enroll for who\n    function enrollFor(address _delegator, string memory _conferenceName) public {\n        require(bytes(participants[msg.sender].name).length > 0, \"You need to sign up first.\");\n        require(isTrustee(msg.sender, _delegator), \"You are not authorized for this user.\");\n\n        bool conferenceExists = false;\n        uint conferenceId = 0;\n        for (uint i = 0; i < conferences.length; i++) {\n            if (keccak256(bytes(conferences[i].name)) == keccak256(bytes(_conferenceName))) {\n                conferenceExists = true;\n                conferenceId = i;\n                break;\n            }\n        }\n        require(conferenceExists, \"Conference not found.\");\n\n        Conference storage conf = conferences[conferenceId];\n        require(conf.canRegister, \"Conference registration is closed.\");\n        require(conf.curPerson < conf.maxPerson, \"Conference is full.\");\n\n        conf.curPerson++;\n\n        // TODO: _delegator may haven't sign up and have no name\n        // participants[_delegator].conferences.push(_conferenceName);\n        // emit MyNewConference(_delegator, _conferenceName);\n\n        if (conf.curPerson >= conf.maxPerson) {\n            conf.canRegister = false;\n            emit ConferenceExpire(_conferenceName);\n        }\n    }\n\n    // administrator\n    function newConference(string memory _name, string memory _detail, uint _maxPerson) public onlyAdministrator {\n        require(_maxPerson > 0, \"Maximum participant number must > 0.\");\n        conferences.push(Conference({\n            name: _name,\n            maxPerson: _maxPerson,\n            curPerson: 0,\n            canRegister: true,\n            detail: _detail\n        }));\n        emit NewConference(_name);\n    }\n    // function destruct() private onlyAdministrator {\n    //     selfdestruct(payable(administrator));\n    // }\n    function destruct() public payable onlyAdministrator {\n        require(msg.sender == administrator);\n        (bool success,) = payable(administrator).call{value: address(this).balance}(\"\");\n        require(success, \"Transfer failed.\");\n    }\n\n    // search functions\n    function queryConfList() public view returns (Conference[] memory){\n        uint cnt = 0;\n        for(uint i = 0;i<conferences.length;i++){\n            if(conferences[i].canRegister){\n                cnt++;\n            }\n        }\n        Conference[] memory openConfs = new Conference[](cnt);\n        uint idx = 0;\n        for (uint j=0 ;j<conferences.length;j++){\n            if(conferences[j].canRegister){\n                openConfs[idx] = conferences[j];\n                idx++;\n            }\n        }\n        return openConfs;\n    }\n\n\n    function queryMyConf() public view returns (string[] memory) {\n        return participants[msg.sender].conferences;\n    }\n\n    function getParticipantName(address _participant) public view returns (string memory) {\n        return participants[_participant].name;\n    }\n    function getParticipantConfList(address _participant) public view returns (string[] memory) {\n        return participants[_participant].conferences;\n    }\n}",
  "sourcePath": "/mnt/d/learn/2024_Autumn/lab7dapp/lab8/contracts/Enrollment.sol",
  "compiler": {
    "name": "solc",
    "version": "0.8.13+commit.abaa5c0e.Emscripten.clang"
  },
  "schemaVersion": "3.4.16",
  "updatedAt": "2024-12-07T09:50:42.473Z",
  "networkType": "ethereum",
  "devdoc": {
    "kind": "dev",
    "methods": {},
    "version": 1
  },
  "userdoc": {
    "kind": "user",
    "methods": {},
    "version": 1
  }
}